:100000000C9434000C943E000C943E000C943E0082
:100010000C943E000C943E000C943E000C943E0068
:100020000C943E000C943E000C943E000C943E0058
:100030000C943E000C943E000C943E000C943E0048
:100040000C943E000C943E000C943E000C943E0038
:100050000C943E000C943E000C943E000C943E0028
:100060000C943E000C943E0011241FBECFEFD8E04C
:10007000DEBFCDBF0E9464000C94D8000C94000039
:10008000449A40E44A95F1F7449880E28A95F1F762
:1000900020E130E080E090E0459840E24A95F1F7B9
:1000A00096958795339903C040E050E002C040E048
:1000B00050E8842B952B459A40E24A95F1F7215060
:1000C000310951F7906F08953D9A3C9A3B98459AB3
:1000D0004498439A84B18F6184B985B18F6185B9A1
:1000E0000E944000809590958370917081309105B9
:1000F00031F08115914049F4C0E0D1E008C0399A4F
:10010000419A12E0CFE0DFE005C0CFE0DFE0389AAF
:10011000409A11E00E94400092FD02C08F7E9460E0
:1001200093FD02C08F7D98609C0120953095AC01B5
:1001300064E0569547956A95E1F74F701230C1F02B
:10014000C9018C239D23892B11F480E101C080E03B
:10015000482B45B9C90134E0969587953A95E1F762
:1001600080732F70282B220F220F2BB92AB9D2CFE0
:10017000406145B9E7E4F3E03197F1F700C00000D2
:10018000AC0196E0569547959A95E1F74C708370CF
:10019000842B85B922FD02C080E001C08CE123FDE3
:1001A00002C090E001C090EE892B8BB98AB9B2CF22
:0401B000F894FFCFF1
:00000001FF
